:100000000C942A000C9434000C9434000C943400AA
:100010000C9434000C9434000C9434000C94340090
:100020000C9434000C9434000C9434000C94340080
:100030000C9434000C9434000C9434000C94340070
:100040000C9434000C9434000C9434000C94340060
:100050000C94340011241FBECFE5D8E0DEBFCDBF25
:100060000E9406020C9429020C940000683008F0EB
:1000700074C04423B1F5813099F0813030F0823082
:10008000D1F0833009F069C021C02AB381E090E04B
:1000900002C0880F991F6A95E2F7282B2ABB5BC024
:1000A00027B381E090E002C0880F991F6A95E2F7BC
:1000B000282B27BB50C024B381E090E002C0880FFA
:1000C000991F6A95E2F7282B24BB45C021B381E034
:1000D00090E002C0880F991F6A95E2F7282B21BB98
:1000E0003AC04130D1F5813099F0813028F082302A
:1000F000D9F0833091F524C02AB381E090E002C0AA
:10010000880F991F6A95E2F7809582238ABB23C0E6
:1001100027B381E090E002C0880F991F6A95E2F74B
:100120008095822387BB17C024B381E090E002C092
:10013000880F991F6A95E2F78095822384BB0BC0D4
:1001400021B381E090E002C0880F991F6A95E2F721
:100150008095822381BB80E0089581E00895683016
:1001600008F074C04130B1F5813099F0813030F041
:100170008230D1F0833009F069C021C02BB381E017
:1001800090E002C0880F991F6A95E2F7282B2BBBDD
:100190005BC028B381E090E002C0880F991F6A9588
:1001A000E2F7282B28BB50C025B381E090E002C0C5
:1001B000880F991F6A95E2F7282B25BB45C022B30B
:1001C00081E090E002C0880F991F6A95E2F7282B22
:1001D00022BB3AC04423D1F5813099F0813028F018
:1001E0008230D9F0833091F524C02BB381E090E0C8
:1001F00002C0880F991F6A95E2F7809582238BBB16
:1002000023C028B381E090E002C0880F991F6A954F
:10021000E2F78095822388BB17C025B381E090E088
:1002200002C0880F991F6A95E2F78095822385BBEB
:100230000BC022B381E090E002C0880F991F6A953D
:10024000E2F78095822382BB80E0089581E00895E3
:10025000982F862F81508E3F90F0913049F0913049
:1002600028F0923039F0933051F406C06ABB05C0D3
:1002700067BB03C064BB01C061BB80E0089581E03F
:100280000895813051F0813030F0823041F0833078
:1002900049F081E008956BBB03C068BB01C065BB3A
:1002A00080E0089562BB80E00895FA016830E8F4C8
:1002B00041155105D1F0813049F0813028F082306C
:1002C00039F0833091F406C089B305C086B303C00A
:1002D00083B301C080B390E002C0959587956A957D
:1002E000E2F78170808380E0089581E008950F93A4
:1002F0001F93182F062F41E00E943600812F602F98
:1003000041E00E94AF001F910F9108951F93182F95
:1003100082E060E041E00E94AF0082E061E040E006
:100320000E94AF0083E0612F0E94410182E062E001
:1003300041E00E94AF0080E49FE10197F1F782E085
:1003400062E040E00E94AF001F9108951F93182FB4
:1003500082E060E040E00E94AF0082E061E040E0C7
:100360000E94AF0083E0612F0E94410182E062E0C1
:1003700041E00E94AF0080E49FE10197F1F782E045
:1003800062E040E00E94AF001F9108950F931F9319
:1003900083E060E00E94280183E061E00E94410167
:1003A00082E060E040E00E94360082E061E040E0F0
:1003B0000E94360082E062E040E00E9436008EE556
:1003C00091E020E931E0F9013197F1F70197D9F790
:1003D00088E30E94A60100EA1FE0C8010197F1F737
:1003E0008CE00E94A601C8010197F1F781E00E940C
:1003F000A60188EE97E10197F1F786E00E94A60139
:10040000C8010197F1F71F910F9108950E94C6014D
:100410008AE50E94860185E40E94860182E40E94AA
:10042000860189E50E94860180E20E9486018DE4B2
:100430000E94860181E40E9486018EE40E9486016A
:1004400087E40E94860181E40E94860180E090E0BA
:060450000895F894FFCFAF
:00000001FF
