:100000000C942A000C943F000C943F000C943F0089
:100010000C943F000C943F000C943F000C943F0064
:100020000C943F000C943F000C943F000C943F0054
:100030000C943F000C943F000C943F000C943F0044
:100040000C943F000C943F000C943F000C943F0034
:100050000C943F0011241FBECFE5D8E0DEBFCDBF1A
:1000600010E0A0E6B0E0E8E0F5E002C005900D92F7
:10007000A837B107D9F70E947F020C9482020C9432
:100080000000683008F074C04423B1F5813099F065
:10009000813030F08230D1F0833009F069C021C066
:1000A0002AB381E090E002C0880F991F6A95E2F7B9
:1000B000282B2ABB5BC027B381E090E002C0880FE9
:1000C000991F6A95E2F7282B27BB50C024B381E023
:1000D00090E002C0880F991F6A95E2F7282B24BB95
:1000E00045C021B381E090E002C0880F991F6A9556
:1000F000E2F7282B21BB3AC04130D1F5813099F08D
:10010000813028F08230D9F0833091F524C02AB3B1
:1001100081E090E002C0880F991F6A95E2F7809510
:1001200082238ABB23C027B381E090E002C0880FFE
:10013000991F6A95E2F78095822387BB17C024B385
:1001400081E090E002C0880F991F6A95E2F78095E0
:10015000822384BB0BC021B381E090E002C0880FF2
:10016000991F6A95E2F78095822381BB80E008950C
:1001700081E00895683008F074C04130B1F58130F5
:1001800099F0813030F08230D1F0833009F069C0CD
:1001900021C02BB381E090E002C0880F991F6A95BF
:1001A000E2F7282B2BBB5BC028B381E090E002C0B4
:1001B000880F991F6A95E2F7282B28BB50C025B3FA
:1001C00081E090E002C0880F991F6A95E2F7282B22
:1001D00025BB45C022B381E090E002C0880F991F83
:1001E0006A95E2F7282B22BB3AC04423D1F581302F
:1001F00099F0813028F08230D9F0833091F524C015
:100200002BB381E090E002C0880F991F6A95E2F756
:10021000809582238BBB23C028B381E090E002C08D
:10022000880F991F6A95E2F78095822388BB17C0D3
:1002300025B381E090E002C0880F991F6A95E2F72C
:100240008095822385BB0BC022B381E090E002C081
:10025000880F991F6A95E2F78095822382BB80E020
:10026000089581E00895982F862F81508E3F90F059
:10027000913049F0913028F0923039F0933051F4B8
:1002800006C06ABB05C067BB03C064BB01C061BBDD
:1002900080E0089581E00895813051F0813030F0A0
:1002A000823041F0833049F081E008956BBB03C098
:1002B00068BB01C065BB80E0089562BB80E0089523
:1002C000FA016830E8F441155105D1F0813049F068
:1002D000813028F0823039F0833091F406C089B340
:1002E00005C086B303C083B301C080B390E002C0F1
:1002F000959587956A95E2F78170808380E00895EF
:1003000081E008950F931F93182F062F41E00E945C
:100310004100812F602F41E00E94BA001F910F9190
:100320000895AF92BF92CF92DF92EF92FF920F9318
:100330001F93DF93CF93CDB7DEB761970FB6F894D5
:10034000DEBF0FBECDBF8FEF8983DE011296E8E6D8
:10035000F0E080E101900D928150E1F7CC24DD24A2
:100360008E010F5F1F4FF601E05AFF4FA08081E022
:100370006A2D40E00E94BA00BB2481E060E0A80141
:100380000E9460018981882319F4EE24FF2430C083
:10039000BB24B39481E061E0A8010E9460018981DF
:1003A000882321F451E0E52EF12C22C042E0B42E46
:1003B00081E062E0A8010E9460018981882321F424
:1003C00032E0E32EF12C14C023E0B22E81E063E092
:1003D000A8010E9460018981882301F593E0E92E3C
:1003E000F12C06C081E06B2DA8010E94600103C0C2
:1003F0008E010F5F1F4F89818823A1F3EE0CFF1C34
:10040000EE0CFF1C0E0D1F1D0C0D1D1DF8011181A2
:1004100081E06A2D41E00E94BA000EC081E06A2DA1
:1004200041E00E94BA000894C11CD11CF4E0CF1630
:10043000D10409F098CF1FEF812F61960FB6F89481
:10044000DEBF0FBECDBFCF91DF911F910F91FF9007
:10045000EF90DF90CF90BF90AF90089581E064E07F
:1004600040E00E94410081E065E040E00E944100E0
:1004700081E066E040E00E94410081E067E040E00A
:100480000E94410081E064E041E00E94BA0081E006
:1004900065E041E00E94BA0081E066E041E00E9430
:1004A000BA0081E067E041E00E94BA0081E060E0CC
:1004B00041E00E94410081E061E041E00E94410092
:1004C00081E062E041E00E94410081E063E041E0C0
:1004D0000E94410081E060E041E00E94BA0081E0BA
:1004E00061E041E00E94BA0081E062E041E00E94E8
:1004F000BA0081E063E041E00E94BA00089580E024
:0805000090E00895F894FFCF8C
:1005080004050607000102030102030405060708A3
:08051800090A0B0C0D0E0F1077
:00000001FF
